:02000004080AE8
:1000000000000A085C130A0800000600060005014B
:080010000402E50C00000000F1
:04001800D4100A08EE
:10001C0009480A4908B5884205D0094A824202D0EB
:10002C00121A00F093FF0748074A0021121A00F039
:10003C009BFF064808BD00BF00000020C4120A0840
:10004C007000002070000020D1040020D10400209A
:10005C0070B500F043FE0025054E064CA41BA40809
:10006C00AC4200D170BD56F8043B98470135F7E718
:10007C00A0120A08BC120A0800F032B808B500F049
:10008C0049F8BDE8084000F0E1BD00F0CBB900F044
:10009C00D1B90078B0FA80F04009704701230370A1
:1000AC007047000038B50B49054600F0F5FB0446D7
:1000BC0030B10121084B188800F09DFE012038BD9D
:1000CC002846064900F0E8FB08B12146F2E74FF05C
:1000DC00FF30F4E7E8100A0800000020EB100A08D3
:1000EC0010B5084C0121208800F074FE20880021F6
:1000FC0000F081FEBDE81040034A0449044800F0BA
:10010C00CFB900BF00000020EF100A08B1000A08A8
:10011C0081040A087047000008B5024B1B685B6C31
:10012C00019308BDD001060808B5024B1B689B6CF7
:10013C00019308BDD001060808B5024B1B685B682B
:10014C00019308BD9C01060808B5024B1B685B694E
:10015C00019308BD9C01060808B5024B1B689B68FF
:10016C00019308BDB001060808B5024B1B68DB689B
:10017C00019308BDB001060808B5024B1B681B694A
:10018C00019308BDB001060808B5024B1B681B6E35
:10019C00019308BDAC01060808B5024B1B685B6EE9
:1001AC00019308BDAC01060808B5024B1B689B6E99
:1001BC00019308BDAC01060808B5024B1B68DB6E49
:1001CC00019308BDAC01060808B5024B1B681B6FF8
:1001DC00019308BDAC01060808B5024B1B685B6FA8
:1001EC00019308BDAC01060808B5034B1B68D3F896
:1001FC008030019308BD0000AC01060808B5024B25
:10020C001B68DB69019308BDB401060808B5024BF5
:10021C001B681B6A019308BDB401060808B5024BA4
:10022C001B685B6A019308BDC401060808B5024B44
:10023C001B689B6A019308BDC401060808B5024BF4
:10024C001B68DB6A019308BDC401060808B5024BA4
:10025C001B681B6B019308BDC401060808B5024B53
:10026C001B685B6B019308BDC401060808B5024B03
:10027C001B689B6B019308BDC401060808B5024BB3
:10028C001B681B6C019308BDC401060808B5024B22
:10029C001B681B6E019308BDC401060808B5024B10
:1002AC001B681B68019308BDD801060808B5024BF2
:1002BC001B681B69019308BDD801060808B5024BE1
:1002CC001B685B69019308BDD801060808B5024B91
:1002DC001B689B69019308BDD801060808B5024B41
:1002EC001B68DB69019308BDD801060808B5024BF1
:1002FC001B681B6A019308BDD801060808B5024BA0
:10030C001B689B6C019308BDC001060808B5024B25
:10031C001B685B68019308BDA401060808B5034B74
:10032C001B68D3F89030019308BD0000A4010608A7
:10033C0008B5034B1B68D3F89C30019308BD000033
:10034C00A401060808B5024B1B685B68019308BD45
:10035C00CC01060808B5024B1B68DB6B019308BD8A
:10036C00CC01060808B5024B1B685B68019308BDFD
:10037C00C801060808B5024B1B689B68019308BDB1
:10038C00C801060808B5024B1B68DB68019308BD61
:10039C00C801060808B5024B1B681B69019308BD10
:1003AC00C801060808B5024B1B685B69019308BDC0
:1003BC00C801060808B5024B1B689B69019308BD70
:1003CC00C801060808B5024B1B68DB69019308BD20
:1003DC00C801060808B5024B1B681B6A019308BDCF
:1003EC00C801060808B5024B1B681B6B019308BDBE
:1003FC00C801060808B5024B1B685B6B019308BD6E
:10040C00C801060808B5024B1B681B6C019308BD9C
:10041C00C801060808B5024B1B685B6C019308BD4C
:10042C00C801060808B5024B1B681B68019308BD80
:10043C00A001060808B5024B1B685B68019308BD58
:10044C00A001060808B5024B1B689B68019308BD08
:10045C00A001060808B5024B1B681B6C019308BD74
:10046C00A001060808B5024B1B685B6C019308BD24
:10047C00A001060810B588B00446684600F0DFF904
:10048C00694604A800F0FDF904A8A047044604A896
:10049C0000F08BF9684600F088F9204608B010BDD2
:1004AC001FB500231024CDE90201019269461A46BA
:1004BC001846ADF80230ADF80040FFF743FF04B02A
:1004CC0010BD7047F8B5064615460C468F18BC4251
:1004DC0006D0336830469B6814F8011B9847F6E742
:1004EC002846F8BD0022007CFFF74EBE0021007CA0
:1004FC00FFF752BE0021007CFFF756BE0021007CA6
:10050C00FFF75ABE0021007CFFF75EBE10B5044613
:10051C001421FFF7BCFD204610BD000010B54FF4B0
:10052C007A73044608460021C4E90113034B1146B3
:10053C0023602074FFF758FE204610BD00110A08F6
:10054C007047F8B50E46002400F10807051D17F892
:10055C00011D0A22304600F0F6F8AF42044401D1E6
:10056C002046F8BD002CF2D02E21304600F0E8F8E1
:10057C000444ECE710B504461821FFF788FD20462B
:10058C0010BD000010B50446044B1122002140F8A8
:10059C00043B00F0E9FC204610BD00BF28110A08FE
:1005AC000346074A10B543F8042B01F1100251F829
:1005BC00044B914243F8044BF9D10A781A7010BDE0
:1005CC0028110A08024AC0E900210422027570476A
:1005DC0028110A0810B59DF8084044EA03240423A6
:1005EC0044EA024444EA01644460037510BD00000F
:1005FC0013B5044C04609DF810400094FFF7EAFF1B
:10060C0002B010BD28110A08014B024A1A6070474B
:10061C007000002034110A08002340681A46FFF7C6
:10062C00A1BE002202214068FFF7ACBE0022406848
:10063C001146FFF79FBE002240681146FFF7AABE85
:10064C00002340681A461946FFF7ACBE00234068E9
:10065C001A461946FFF7AEBE00214068FFF7D2BE1E
:10066C0000214068FFF7D6BE0022406881F00101EE
:10067C00FFF7A8BE00224068FFF7B4BE0022406816
:10068C001146FFF7B7BE002240681146FFF7A2BE25
:10069C0070B515468EB0044608A8FFF773FF1122FB
:1006AC00002103A800F060FC0026284600F09CFC0A
:1006BC000A4B009681B25B68284603AAFFF71EFE20
:1006CC0030B131462046FFF77DFF20460EB070BD9D
:1006DC00204603A9FFF764FFF7E700BFD40300200F
:1006EC00024B034A1A6000225A60704774000020C3
:1006FC0040110A08F8B506460D4600248F18BD4275
:10070C000CD0336830469B6815F8011B9847031EC4
:10071C0001DB1C44F3E7002C08BF1C462046F8BD47
:10072C0070B505460C46084649B100F05DFC2B68D7
:10073C00024621462846BDE87040DB68184770BD6C
:10074C0003689B6818470023012A98BF0A2230B51A
:10075C008BB00C468DF8243009A92546B4FBF2F475
:10076C0004FB1253DBB2092B94BF30333733DBB2AB
:10077C00AA4201F8013DF0D9FFF7D2FF0BB030BD12
:10078C000022014B9A6070477C00002070B5002657
:10079C0004460D4640F8086FFFF7BEFC284625704E
:1007AC00FFF72CFD2046666070BD10B5044600684E
:1007BC00FFF740FE204610BD10B50446006808B196
:1007CC00FFF738FE0023C4E90133236010BD38B5B0
:1007DC0004460D4600680131FFF734FE10B1C4E940
:1007EC000005012038BD10B50368044623B14368E9
:1007FC008B4201D3012010BD2046FFF7E8FF0028F3
:10080C00F9D0A368002BF5D122681370F2E770B50C
:10081C000E46114604461546FFF7E5FF20B9204663
:10082C00FFF7CAFF204670BD2A4631462068A560F6
:10083C0000F08CFB00212268A368D154F2E738B594
:10084C00002304460D46C0E900338360037339B1BD
:10085C00084600F0C9FB294602462046FFF7D7FFA1
:10086C00204638BD884210B50B46044604D00968B2
:10087C0021B19A68FFF7CBFF204610BDFFF79CFF14
:10088C00FAE7002310B50446C0E900338360037314
:10089C00FFF7E8FF204610BD08B582683AB921B1D0
:1008AC000878B0FA80F0400900E0012008BD00682B
:1008BC0009B90078F5E700F08DFBF2E70222002081
:1008CC00044B1A60044B054AC3E900009A60FFF719
:1008DC001DBD00BF980000208C0000200000FFFF11
:1008EC00024B1A68024B1A60704700BF04000020CC
:1008FC009C00002070474174704708B5007CFFF7DE
:10090C00BDFC20EAE07008BD08B5007CFFF78EFC4A
:10091C0020EAE07008BD08B5007CFFF797FC40EAC0
:10092C00E07008BD08B5007CFFF788FC40EAE07079
:10093C0008BD007CFFF792BC70B5467C04460D46A2
:10094C002EB12946207CBDE87040FFF767BC007CC7
:10095C00FFF794FC0028F4DC304670BD10B504465B
:10096C001421FFF794FB204610BD000010B54FF486
:10097C007A730446084611460022C4E90123044B4D
:10098C002074236001236374FFF780FC204610BDA4
:10099C0098110A08417470477047704708B50021D8
:1009AC00007CFFF793FC40EAE07008BD08B501211C
:1009BC00007CFFF78BFC40EAE07008BD08B5007CBA
:1009CC00FFF77CFC20EAE07008BD08B5007CFFF75F
:1009DC006DFC20EAE07008BD38B50446007C0D467D
:1009EC00FFF76CFC002801DC607C28B12946207CD8
:1009FC00FFF774FC20EAE07038BD007CFFF776BC92
:100A0C0010B504461421FFF742FB204610BD704779
:100A1C0010B54FF47A73044608460021C4E901135B
:100A2C00044B20742360012311466374FFF736FCDA
:100A3C00204610BDC8110A0810B504461422002126
:100A4C0000F092FA054B20466360054BE36040F2E0
:100A5C00011323818123238210BD00BFD00000200D
:100A6C00D101002030B50E4D87B001A8FFF7E4FF8F
:100A7C002978BFF35B8F11F001040ED12846FFF7E4
:100A8C0008FB50B1214601AA0648FFF7C1FF2846D2
:100A9C00FFF704FB044800F053FA024807B030BDDE
:100AAC00A0000020A8000020A5090A0810B50446E3
:100ABC001422002100F058FA054B20466360054BC8
:100ACC00E36040F2011323818123238210BD00BF18
:100ADC00520200205303002010B50E4C86B001A822
:100AEC00FFF7E4FF2378BFF35B8FDB070ED42046C0
:100AFC00FFF7CFFA50B1012101AA0748FFF788FF91
:100B0C002046FFF7CBFA054800F01AFA024806B067
:100B1C0010BD00BFA4000020BC0000201B0A0A0866
:100B2C00002240681146FFF735BCF0B5154689B078
:100B3C0011220E460446002103A800F015FA28469F
:100B4C0000F052FA002781B273682846009703AA76
:100B5C00FFF7D4FB30B139462046FFF733FD204672
:100B6C0009B0F0BD204603A9FFF71AFDF7E70022F4
:100B7C0040681146FFF72EBC002240681146FFF773
:100B8C0039BC00224068FFF72DBC0022406881F080
:100B9C000101FFF717BC002340681A461946FFF7FE
:100BAC0009BC002340681A461946FFF7FBBB00221C
:100BBC0040681146FFF7DEBB002202214068FFF7B8
:100BCC00E1BB002340681A46FFF7CCBB0422024B62
:100BDC005A60024A1A607047D4030020F8110A08C0
:100BEC00014B1860704700BF0800002008B5134B7C
:100BFC0043B1FFF737FF03681B699847002801DDF5
:100C0C00AFF300800E4B43B100F074F903681B691D
:100C1C009847002801DDAFF300800A4B0BB1AFF30E
:100C2C000080094B43B1FFF757FF03681B699847D6
:100C3C00002801DDAFF3008008BD00BF00000000FC
:100C4C0000000000000000000000000008B5FFF7E5
:100C5C00CDFFFFF779FA014B186008BDF4030020B3
:100C6C000548064A08B5121A054900F06FF9054BFC
:100C7C00054A1A6008BD00BF004002400440024013
:100C8C00C0120A08004002401E1C279A002307B518
:100C9C001A466FF077010093FFF74AFB03B05DF83B
:100CAC0004FB000007B543880A2B08D0502B0BD14E
:100CBC00094B1B684BB103B05DF804EB1847FFF709
:100CCC00E5FF03B05DF804FB00231A466FF07701D3
:100CDC000093FFF72DFBF4E7E0030020002110B593
:100CEC001148FFF7BFFB114B1A68114B9A420CBF0E
:100CFC00012200220F4B1A7001D0FFF7B1FFFFF752
:100D0C001BFA044600F038F90B4B13B12046AFF335
:100D1C00008000210848FFF71DFBBDE810400021B2
:100D2C000648FFF7FBBA00BFED0B0A080040024073
:100D3C001E1C279ADC03002000000000B10C0A08DE
:100D4C00024B986808B1FFF7EFB97047E803002031
:100D5C00172870B5044601D9002070BDA0F10D0311
:100D6C00022B0BD9012824D800F076F80021007C46
:100D7C00FFF732FA80F00100C0B2EEE7124E317884
:100D8C00BFF35B8F11F001050DD13046FFF781F9F0
:100D9C0048B129460D48FFF7F9FC3046FFF77EF9BC
:100DAC000B4800F0CDF8094B1878FFF72FFA002804
:100DBC00D2D1123C012C05D800F09CF8007CFFF736
:100DCC0055FAD7E70120C8E7E4030020E803002028
:100DDC004D0D0A08172838B504460D460AD8FF29C8
:100DEC0008D0FFF7B5FF28B129462046BDE83840AA
:100DFC00FFF7B2B938BD38B504460D46FFF7B4F964
:100E0C00FF2810D0062804D84D2323FA00F0C3077E
:100E1C0009D42046FFF79CFF28B129462046BDE89F
:100E2C003840FFF7A9B938BD7047000070B51423DE
:100E3C002025084E0446036031468560056128462E
:100E4C0000F07CF831466060284600F077F8E060EE
:100E5C00204670BD2C120A0830B50E4D87B029788B
:100E6C00BFF35B8F11F0010411D12846FFF711F984
:100E7C0068B101A8FFF7DAFF214601AA0648FFF77F
:100E8C004DFB2846FFF70AF9044800F059F80248D0
:100E9C0007B030BDF8030020FC030020350E0A0813
:100EAC00002307B51A46194600930348FFF7A0FB29
:100EBC0003B05DF804FB00BF100400207047000075
:100ECC0070B5142504462A46002100F04DF8258003
:100EDC008025074E284631462581258200F02EF8C4
:100EEC0031466060284600F029F8E060204670BD6D
:100EFC002C120A0830B50E4D87B02978BFF35B8FE2
:100F0C0011F0010411D12846FFF7C3F868B101A80C
:100F1C00FFF7D6FF214601AA0648FFF727FD284612
:100F2C00FFF7BCF8044800F00BF8024807B030BDDE
:100F3C00280400202C040020C90E0A08FFF7A5B8CD
:100F4C00002301461A46184600F056B80A4491424E
:100F5C0000F1FF3300D1704710B511F8014B9142ED
:100F6C0003F8014FF9D110BD03460244934200D15E
:100F7C00704703F8011BF9E738B5104B04461D68A0
:100F8C00AB6BB3B91820FFF74DFA0246A86320B932
:100F9C0042210B4B0B48FFF75DFA0B490B4BC0E999
:100FAC0000130B4B002183600B2383810120C2E9CA
:100FBC0004010022AB6B1C615A6138BD0800002093
:100FCC002D120A0844120A080E33CDAB34126DE60A
:100FDC00ECDE050010F8012B11F8013B012A28BFAB
:100FEC009A42F7D0D01A7047034613F8012B002A07
:100FFC00FBD1181A013870472DE9F843DFF8AC80A3
:10100C000646D8F800001F460D46914600F058F8E9
:10101C00274B1C6834B9274C1C60274B13B11B6839
:10102C00C4F8883063681F2B07DDD8F8000000F087
:10103C0049F84FF0FF30BDE8F8835EB3D4F8880070
:10104C0088B91E4B23B9D8F8000000F03AF8F0E745
:10105C004FF48470FFF7E6F90028F4D00023C0E9C0
:10106C004033C4F8880001226368022E40F82390B4
:10107C0002FA03F200EB8301D0F8003143EA0203D9
:10108C00C0F80031C1F8807002BFD0F804311343AE
:10109C00C0F804316368D8F800005A1C023362604F
:1010AC0044F8235000F00EF80020C4E76C00002038
:1010BC00CC040020400400200000000031040A0889
:1010CC0070477047704700001D000A085D000A0851
:1010DC0085000A0889000A08000000006F6E006F86
:1010EC006666007765624C656400000000000000D5
:1010FC0000000000CF040A0819050A08F1040A08C8
:10110C00D1040A08F9040A0801050A0809050A08A5
:10111C0011050A0800000000000000004F050A0835
:10112C004D050A0881050A08617070000000000076
:10113C000000000025060A082F060A0839060A08CE
:10114C0043060A084D060A0859060A0865060A08E5
:10115C006D060A0875060A0881060A0889060A0837
:10116C0093060A089D060A0825592D256D2D256420
:10117C005425483A254D3A2553257A0061736374FA
:10118C00696D6500000000000000000001090A08FC
:10119C0069090A0845090A0801070A0815090A0815
:1011AC0031090A0823090A083F090A0803090A0831
:1011BC0007090A080000000000000000A7090A083F
:1011CC000D0A0A08E5090A0801070A08D7090A08DE
:1011DC00A9090A08B9090A08070A0A08C9090A0864
:1011EC00A1090A080000000000000000CF0B0A084B
:1011FC00C50B0A08BB0B0A082D0B0A08AF0B0A0813
:10120C00A30B0A0865060A086D060A08970B0A085C
:10121C008F0B0A08850B0A087B0B0A08370B0A0888
:10122C00005245454E54206D616C6C6F6320737594
:10123C0063636565646564002F746D702F6A656EF9
:10124C006B696E732D4743432D31302D706970657A
:10125C006C696E652D34385F323032303131323456
:10126C005F313630363138303633392F7372632F65
:10127C006E65776C69622F6E65776C69622F6C692D
:10128C0062632F7374646C69622F72616E642E6377
:10129C000000000015060A08ED060A088D070A086A
:1012AC00C9080A08ED080A08D90B0A08AD0E0A0885
:0412BC00000000002E
:0412C000000000002A
:1012C4000700000088110A080C000020000000003C
:1012D400000000000000000000000000000000000A
:1012E40000000000000000000000000000000000FA
:1012F40000000000000000000000000000000000EA
:1013040000000000000000000000000000000000D9
:1013140000000000000000000000000000000000C9
:10132400000000000000000000000000D0040020C5
:10133400FFFFFFFF00000102030405060708090A76
:101344000B0C0D0E0F101112131415161718191A71
:081354001B1C1D1E1F202800B8
:04135C007856341279
:04000005080A001CC9
:00000001FF
